{
  "_format": "hh-sol-artifact-1",
  "contractName": "invoice",
  "sourceName": "contracts/invoice.sol",
  "abi": [
    {
      "anonymous": false,
      "inputs": [
        {
          "indexed": true,
          "internalType": "address",
          "name": "previousOwner",
          "type": "address"
        },
        {
          "indexed": true,
          "internalType": "address",
          "name": "newOwner",
          "type": "address"
        }
      ],
      "name": "OwnershipTransferred",
      "type": "event"
    },
    {
      "inputs": [
        {
          "internalType": "string",
          "name": "_buyerPan",
          "type": "string"
        },
        {
          "internalType": "string",
          "name": "_sellerPan",
          "type": "string"
        },
        {
          "internalType": "uint256",
          "name": "_amount",
          "type": "uint256"
        },
        {
          "internalType": "string",
          "name": "_date",
          "type": "string"
        }
      ],
      "name": "addTransaction",
      "outputs": [],
      "stateMutability": "nonpayable",
      "type": "function"
    },
    {
      "inputs": [
        {
          "internalType": "string",
          "name": "",
          "type": "string"
        },
        {
          "internalType": "uint256",
          "name": "",
          "type": "uint256"
        }
      ],
      "name": "buyerHistory",
      "outputs": [
        {
          "internalType": "uint256",
          "name": "txID",
          "type": "uint256"
        },
        {
          "internalType": "string",
          "name": "buyerPan",
          "type": "string"
        },
        {
          "internalType": "string",
          "name": "sellerPan",
          "type": "string"
        },
        {
          "internalType": "uint256",
          "name": "amount",
          "type": "uint256"
        },
        {
          "internalType": "string",
          "name": "date",
          "type": "string"
        },
        {
          "internalType": "bool",
          "name": "paid",
          "type": "bool"
        }
      ],
      "stateMutability": "view",
      "type": "function"
    },
    {
      "inputs": [
        {
          "internalType": "string",
          "name": "panid",
          "type": "string"
        }
      ],
      "name": "getBuyerHistory",
      "outputs": [
        {
          "components": [
            {
              "internalType": "uint256",
              "name": "txID",
              "type": "uint256"
            },
            {
              "internalType": "string",
              "name": "buyerPan",
              "type": "string"
            },
            {
              "internalType": "string",
              "name": "sellerPan",
              "type": "string"
            },
            {
              "internalType": "uint256",
              "name": "amount",
              "type": "uint256"
            },
            {
              "internalType": "string",
              "name": "date",
              "type": "string"
            },
            {
              "internalType": "bool",
              "name": "paid",
              "type": "bool"
            }
          ],
          "internalType": "struct invoice.Transaction[]",
          "name": "",
          "type": "tuple[]"
        }
      ],
      "stateMutability": "view",
      "type": "function"
    },
    {
      "inputs": [],
      "name": "owner",
      "outputs": [
        {
          "internalType": "address",
          "name": "",
          "type": "address"
        }
      ],
      "stateMutability": "view",
      "type": "function"
    },
    {
      "inputs": [],
      "name": "renounceOwnership",
      "outputs": [],
      "stateMutability": "nonpayable",
      "type": "function"
    },
    {
      "inputs": [
        {
          "internalType": "uint256",
          "name": "_txID",
          "type": "uint256"
        }
      ],
      "name": "showTransaction",
      "outputs": [
        {
          "components": [
            {
              "internalType": "uint256",
              "name": "txID",
              "type": "uint256"
            },
            {
              "internalType": "string",
              "name": "buyerPan",
              "type": "string"
            },
            {
              "internalType": "string",
              "name": "sellerPan",
              "type": "string"
            },
            {
              "internalType": "uint256",
              "name": "amount",
              "type": "uint256"
            },
            {
              "internalType": "string",
              "name": "date",
              "type": "string"
            },
            {
              "internalType": "bool",
              "name": "paid",
              "type": "bool"
            }
          ],
          "internalType": "struct invoice.Transaction",
          "name": "",
          "type": "tuple"
        }
      ],
      "stateMutability": "view",
      "type": "function"
    },
    {
      "inputs": [
        {
          "internalType": "uint256",
          "name": "",
          "type": "uint256"
        }
      ],
      "name": "transactions",
      "outputs": [
        {
          "internalType": "uint256",
          "name": "txID",
          "type": "uint256"
        },
        {
          "internalType": "string",
          "name": "buyerPan",
          "type": "string"
        },
        {
          "internalType": "string",
          "name": "sellerPan",
          "type": "string"
        },
        {
          "internalType": "uint256",
          "name": "amount",
          "type": "uint256"
        },
        {
          "internalType": "string",
          "name": "date",
          "type": "string"
        },
        {
          "internalType": "bool",
          "name": "paid",
          "type": "bool"
        }
      ],
      "stateMutability": "view",
      "type": "function"
    },
    {
      "inputs": [
        {
          "internalType": "address",
          "name": "newOwner",
          "type": "address"
        }
      ],
      "name": "transferOwnership",
      "outputs": [],
      "stateMutability": "nonpayable",
      "type": "function"
    }
  ],
  "bytecode": "0x608060405234801561001057600080fd5b5061002d61002261003260201b60201c565b61003a60201b60201c565b6100fe565b600033905090565b60008060009054906101000a900473ffffffffffffffffffffffffffffffffffffffff169050816000806101000a81548173ffffffffffffffffffffffffffffffffffffffff021916908373ffffffffffffffffffffffffffffffffffffffff1602179055508173ffffffffffffffffffffffffffffffffffffffff168173ffffffffffffffffffffffffffffffffffffffff167f8be0079c531659141344cd1fd0a4f28419497f9722a3daafe3b4186f6b6457e060405160405180910390a35050565b611b838061010d6000396000f3fe608060405234801561001057600080fd5b50600436106100885760003560e01c80639ace38c21161005b5780639ace38c21461011a578063c864b87b1461014f578063f2fde38b1461016b578063fafa10cc1461018757610088565b80632ca5465d1461008d5780635d19a002146100bd578063715018a6146100f25780638da5cb5b146100fc575b600080fd5b6100a760048036038101906100a29190610fbe565b6101b7565b6040516100b49190611213565b60405180910390f35b6100d760048036038101906100d29190611261565b61041f565b6040516100e996959493929190611325565b60405180910390f35b6100fa610633565b005b610104610647565b60405161011191906113dc565b60405180910390f35b610134600480360381019061012f91906113f7565b610670565b60405161014696959493929190611325565b60405180910390f35b61016960048036038101906101649190611424565b610861565b005b6101856004803603810190610180919061150b565b610a38565b005b6101a1600480360381019061019c91906113f7565b610abb565b6040516101ae91906115cf565b60405180910390f35b606060006001836040516101cb919061162d565b9081526020016040518091039020805480602002602001604051908101604052809291908181526020016000905b8282101561041057838290600052602060002090600602016040518060c00160405290816000820154815260200160018201805461023690611673565b80601f016020809104026020016040519081016040528092919081815260200182805461026290611673565b80156102af5780601f10610284576101008083540402835291602001916102af565b820191906000526020600020905b81548152906001019060200180831161029257829003601f168201915b505050505081526020016002820180546102c890611673565b80601f01602080910402602001604051908101604052809291908181526020018280546102f490611673565b80156103415780601f1061031657610100808354040283529160200191610341565b820191906000526020600020905b81548152906001019060200180831161032457829003601f168201915b505050505081526020016003820154815260200160048201805461036490611673565b80601f016020809104026020016040519081016040528092919081815260200182805461039090611673565b80156103dd5780601f106103b2576101008083540402835291602001916103dd565b820191906000526020600020905b8154815290600101906020018083116103c057829003601f168201915b505050505081526020016005820160009054906101000a900460ff161515151581525050815260200190600101906101f9565b50505050905080915050919050565b600182805160208101820180518482526020830160208501208183528095505050505050818154811061045157600080fd5b90600052602060002090600602016000915091505080600001549080600101805461047b90611673565b80601f01602080910402602001604051908101604052809291908181526020018280546104a790611673565b80156104f45780601f106104c9576101008083540402835291602001916104f4565b820191906000526020600020905b8154815290600101906020018083116104d757829003601f168201915b50505050509080600201805461050990611673565b80601f016020809104026020016040519081016040528092919081815260200182805461053590611673565b80156105825780601f1061055757610100808354040283529160200191610582565b820191906000526020600020905b81548152906001019060200180831161056557829003601f168201915b50505050509080600301549080600401805461059d90611673565b80601f01602080910402602001604051908101604052809291908181526020018280546105c990611673565b80156106165780601f106105eb57610100808354040283529160200191610616565b820191906000526020600020905b8154815290600101906020018083116105f957829003601f168201915b5050505050908060050160009054906101000a900460ff16905086565b61063b610ce2565b6106456000610d60565b565b60008060009054906101000a900473ffffffffffffffffffffffffffffffffffffffff16905090565b6002818154811061068057600080fd5b90600052602060002090600602016000915090508060000154908060010180546106a990611673565b80601f01602080910402602001604051908101604052809291908181526020018280546106d590611673565b80156107225780601f106106f757610100808354040283529160200191610722565b820191906000526020600020905b81548152906001019060200180831161070557829003601f168201915b50505050509080600201805461073790611673565b80601f016020809104026020016040519081016040528092919081815260200182805461076390611673565b80156107b05780601f10610785576101008083540402835291602001916107b0565b820191906000526020600020905b81548152906001019060200180831161079357829003601f168201915b5050505050908060030154908060040180546107cb90611673565b80601f01602080910402602001604051908101604052809291908181526020018280546107f790611673565b80156108445780601f1061081957610100808354040283529160200191610844565b820191906000526020600020905b81548152906001019060200180831161082757829003601f168201915b5050505050908060050160009054906101000a900460ff16905086565b610869610ce2565b6000600280549050905060026040518060c001604052808381526020018781526020018681526020018581526020018481526020016000151581525090806001815401808255809150506001900390600052602060002090600602016000909190919091506000820151816000015560208201518160010190816108ed9190611850565b5060408201518160020190816109039190611850565b506060820151816003015560808201518160040190816109239190611850565b5060a08201518160050160006101000a81548160ff0219169083151502179055505050600185604051610956919061162d565b90815260200160405180910390206002828154811061097857610977611922565b5b9060005260206000209060060201908060018154018082558091505060019003906000526020600020906006020160009091909190915060008201548160000155600182018160010190816109cd9190611967565b50600282018160020190816109e29190611967565b506003820154816003015560048201816004019081610a019190611967565b506005820160009054906101000a900460ff168160050160006101000a81548160ff02191690831515021790555050505050505050565b610a40610ce2565b600073ffffffffffffffffffffffffffffffffffffffff168173ffffffffffffffffffffffffffffffffffffffff1603610aaf576040517f08c379a0000000000000000000000000000000000000000000000000000000008152600401610aa690611ac1565b60405180910390fd5b610ab881610d60565b50565b610ac3610e2c565b600060028381548110610ad957610ad8611922565b5b90600052602060002090600602016040518060c001604052908160008201548152602001600182018054610b0c90611673565b80601f0160208091040260200160405190810160405280929190818152602001828054610b3890611673565b8015610b855780601f10610b5a57610100808354040283529160200191610b85565b820191906000526020600020905b815481529060010190602001808311610b6857829003601f168201915b50505050508152602001600282018054610b9e90611673565b80601f0160208091040260200160405190810160405280929190818152602001828054610bca90611673565b8015610c175780601f10610bec57610100808354040283529160200191610c17565b820191906000526020600020905b815481529060010190602001808311610bfa57829003601f168201915b5050505050815260200160038201548152602001600482018054610c3a90611673565b80601f0160208091040260200160405190810160405280929190818152602001828054610c6690611673565b8015610cb35780601f10610c8857610100808354040283529160200191610cb3565b820191906000526020600020905b815481529060010190602001808311610c9657829003601f168201915b505050505081526020016005820160009054906101000a900460ff161515151581525050905080915050919050565b610cea610e24565b73ffffffffffffffffffffffffffffffffffffffff16610d08610647565b73ffffffffffffffffffffffffffffffffffffffff1614610d5e576040517f08c379a0000000000000000000000000000000000000000000000000000000008152600401610d5590611b2d565b60405180910390fd5b565b60008060009054906101000a900473ffffffffffffffffffffffffffffffffffffffff169050816000806101000a81548173ffffffffffffffffffffffffffffffffffffffff021916908373ffffffffffffffffffffffffffffffffffffffff1602179055508173ffffffffffffffffffffffffffffffffffffffff168173ffffffffffffffffffffffffffffffffffffffff167f8be0079c531659141344cd1fd0a4f28419497f9722a3daafe3b4186f6b6457e060405160405180910390a35050565b600033905090565b6040518060c0016040528060008152602001606081526020016060815260200160008152602001606081526020016000151581525090565b6000604051905090565b600080fd5b600080fd5b600080fd5b600080fd5b6000601f19601f8301169050919050565b7f4e487b7100000000000000000000000000000000000000000000000000000000600052604160045260246000fd5b610ecb82610e82565b810181811067ffffffffffffffff82111715610eea57610ee9610e93565b5b80604052505050565b6000610efd610e64565b9050610f098282610ec2565b919050565b600067ffffffffffffffff821115610f2957610f28610e93565b5b610f3282610e82565b9050602081019050919050565b82818337600083830152505050565b6000610f61610f5c84610f0e565b610ef3565b905082815260208101848484011115610f7d57610f7c610e7d565b5b610f88848285610f3f565b509392505050565b600082601f830112610fa557610fa4610e78565b5b8135610fb5848260208601610f4e565b91505092915050565b600060208284031215610fd457610fd3610e6e565b5b600082013567ffffffffffffffff811115610ff257610ff1610e73565b5b610ffe84828501610f90565b91505092915050565b600081519050919050565b600082825260208201905092915050565b6000819050602082019050919050565b6000819050919050565b61104681611033565b82525050565b600081519050919050565b600082825260208201905092915050565b60005b8381101561108657808201518184015260208101905061106b565b60008484015250505050565b600061109d8261104c565b6110a78185611057565b93506110b7818560208601611068565b6110c081610e82565b840191505092915050565b60008115159050919050565b6110e0816110cb565b82525050565b600060c0830160008301516110fe600086018261103d565b50602083015184820360208601526111168282611092565b915050604083015184820360408601526111308282611092565b9150506060830151611145606086018261103d565b506080830151848203608086015261115d8282611092565b91505060a083015161117260a08601826110d7565b508091505092915050565b600061118983836110e6565b905092915050565b6000602082019050919050565b60006111a982611007565b6111b38185611012565b9350836020820285016111c585611023565b8060005b8581101561120157848403895281516111e2858261117d565b94506111ed83611191565b925060208a019950506001810190506111c9565b50829750879550505050505092915050565b6000602082019050818103600083015261122d818461119e565b905092915050565b61123e81611033565b811461124957600080fd5b50565b60008135905061125b81611235565b92915050565b6000806040838503121561127857611277610e6e565b5b600083013567ffffffffffffffff81111561129657611295610e73565b5b6112a285828601610f90565b92505060206112b38582860161124c565b9150509250929050565b6112c681611033565b82525050565b600082825260208201905092915050565b60006112e88261104c565b6112f281856112cc565b9350611302818560208601611068565b61130b81610e82565b840191505092915050565b61131f816110cb565b82525050565b600060c08201905061133a60008301896112bd565b818103602083015261134c81886112dd565b9050818103604083015261136081876112dd565b905061136f60608301866112bd565b818103608083015261138181856112dd565b905061139060a0830184611316565b979650505050505050565b600073ffffffffffffffffffffffffffffffffffffffff82169050919050565b60006113c68261139b565b9050919050565b6113d6816113bb565b82525050565b60006020820190506113f160008301846113cd565b92915050565b60006020828403121561140d5761140c610e6e565b5b600061141b8482850161124c565b91505092915050565b6000806000806080858703121561143e5761143d610e6e565b5b600085013567ffffffffffffffff81111561145c5761145b610e73565b5b61146887828801610f90565b945050602085013567ffffffffffffffff81111561148957611488610e73565b5b61149587828801610f90565b93505060406114a68782880161124c565b925050606085013567ffffffffffffffff8111156114c7576114c6610e73565b5b6114d387828801610f90565b91505092959194509250565b6114e8816113bb565b81146114f357600080fd5b50565b600081359050611505816114df565b92915050565b60006020828403121561152157611520610e6e565b5b600061152f848285016114f6565b91505092915050565b600060c083016000830151611550600086018261103d565b50602083015184820360208601526115688282611092565b915050604083015184820360408601526115828282611092565b9150506060830151611597606086018261103d565b50608083015184820360808601526115af8282611092565b91505060a08301516115c460a08601826110d7565b508091505092915050565b600060208201905081810360008301526115e98184611538565b905092915050565b600081905092915050565b60006116078261104c565b61161181856115f1565b9350611621818560208601611068565b80840191505092915050565b600061163982846115fc565b915081905092915050565b7f4e487b7100000000000000000000000000000000000000000000000000000000600052602260045260246000fd5b6000600282049050600182168061168b57607f821691505b60208210810361169e5761169d611644565b5b50919050565b60008190508160005260206000209050919050565b60006020601f8301049050919050565b600082821b905092915050565b6000600883026117067fffffffffffffffffffffffffffffffffffffffffffffffffffffffffffffffff826116c9565b61171086836116c9565b95508019841693508086168417925050509392505050565b6000819050919050565b600061174d61174861174384611033565b611728565b611033565b9050919050565b6000819050919050565b61176783611732565b61177b61177382611754565b8484546116d6565b825550505050565b600090565b611790611783565b61179b81848461175e565b505050565b5b818110156117bf576117b4600082611788565b6001810190506117a1565b5050565b601f821115611804576117d5816116a4565b6117de846116b9565b810160208510156117ed578190505b6118016117f9856116b9565b8301826117a0565b50505b505050565b600082821c905092915050565b600061182760001984600802611809565b1980831691505092915050565b60006118408383611816565b9150826002028217905092915050565b6118598261104c565b67ffffffffffffffff81111561187257611871610e93565b5b61187c8254611673565b6118878282856117c3565b600060209050601f8311600181146118ba57600084156118a8578287015190505b6118b28582611834565b86555061191a565b601f1984166118c8866116a4565b60005b828110156118f0578489015182556001820191506020850194506020810190506118cb565b8683101561190d5784890151611909601f891682611816565b8355505b6001600288020188555050505b505050505050565b7f4e487b7100000000000000000000000000000000000000000000000000000000600052603260045260246000fd5b60008154905061196081611673565b9050919050565b818103611975575050611a4d565b61197e82611951565b67ffffffffffffffff81111561199757611996610e93565b5b6119a18254611673565b6119ac8282856117c3565b6000601f8311600181146119db57600084156119c9578287015490505b6119d38582611834565b865550611a46565b601f1984166119e9876116a4565b96506119f4866116a4565b60005b82811015611a1c578489015482556001820191506001850194506020810190506119f7565b86831015611a395784890154611a35601f891682611816565b8355505b6001600288020188555050505b5050505050505b565b7f4f776e61626c653a206e6577206f776e657220697320746865207a65726f206160008201527f6464726573730000000000000000000000000000000000000000000000000000602082015250565b6000611aab6026836112cc565b9150611ab682611a4f565b604082019050919050565b60006020820190508181036000830152611ada81611a9e565b9050919050565b7f4f776e61626c653a2063616c6c6572206973206e6f7420746865206f776e6572600082015250565b6000611b176020836112cc565b9150611b2282611ae1565b602082019050919050565b60006020820190508181036000830152611b4681611b0a565b905091905056fea26469706673582212203a8831c08586015c34d6823baeb0df865bd529192e03aa50387bd4a8306af71d64736f6c63430008110033",
  "linkReferences": {},
  "deployedLinkReferences": {}
}